{
  "_format": "hh-sol-artifact-1",
  "contractName": "Counter",
  "sourceName": "contracts/Counter.sol",
  "abi": [
    {
      "inputs": [
        {
          "internalType": "uint256",
          "name": "initialValue",
          "type": "uint256"
        }
      ],
      "stateMutability": "nonpayable",
      "type": "constructor"
    },
    {
      "anonymous": false,
      "inputs": [
        {
          "indexed": false,
          "internalType": "uint256",
          "name": "oldValue",
          "type": "uint256"
        },
        {
          "indexed": false,
          "internalType": "uint256",
          "name": "newValue",
          "type": "uint256"
        }
      ],
      "name": "CounterChanged",
      "type": "event"
    },
    {
      "inputs": [],
      "name": "decrement",
      "outputs": [],
      "stateMutability": "nonpayable",
      "type": "function"
    },
    {
      "inputs": [],
      "name": "get",
      "outputs": [
        {
          "internalType": "uint256",
          "name": "",
          "type": "uint256"
        }
      ],
      "stateMutability": "view",
      "type": "function"
    },
    {
      "inputs": [],
      "name": "increment",
      "outputs": [],
      "stateMutability": "nonpayable",
      "type": "function"
    },
    {
      "inputs": [
        {
          "internalType": "uint256",
          "name": "newValue",
          "type": "uint256"
        }
      ],
      "name": "set",
      "outputs": [],
      "stateMutability": "nonpayable",
      "type": "function"
    }
  ],
  "bytecode": "0x6080604052348015600f57600080fd5b5060405161049f38038061049f8339818101604052810190602f91906071565b80600081905550506099565b600080fd5b6000819050919050565b6051816040565b8114605b57600080fd5b50565b600081519050606b81604a565b92915050565b6000602082840312156084576083603b565b5b6000609084828501605e565b91505092915050565b6103f7806100a86000396000f3fe608060405234801561001057600080fd5b506004361061004c5760003560e01c80632baeceb71461005157806360fe47b11461005b5780636d4ce63c14610077578063d09de08a14610095575b600080fd5b61005961009f565b005b6100756004803603810190610070919061022d565b610140565b005b61007f61018c565b60405161008c9190610269565b60405180910390f35b61009d610195565b005b60008054905060008054116100e9576040517f08c379a00000000000000000000000000000000000000000000000000000000081526004016100e0906102e1565b60405180910390fd5b60016000808282546100fb9190610330565b925050819055507fade7db362a57d4588cd71583795c5151dff853381c278b2506802ea709e280e981600054604051610135929190610364565b60405180910390a150565b600080549050816000819055507fade7db362a57d4588cd71583795c5151dff853381c278b2506802ea709e280e981600054604051610180929190610364565b60405180910390a15050565b60008054905090565b60008054905060016000808282546101ad919061038d565b925050819055507fade7db362a57d4588cd71583795c5151dff853381c278b2506802ea709e280e9816000546040516101e7929190610364565b60405180910390a150565b600080fd5b6000819050919050565b61020a816101f7565b811461021557600080fd5b50565b60008135905061022781610201565b92915050565b600060208284031215610243576102426101f2565b5b600061025184828501610218565b91505092915050565b610263816101f7565b82525050565b600060208201905061027e600083018461025a565b92915050565b600082825260208201905092915050565b7f636f756e7465722063616e6e6f74206265206e65676174697665000000000000600082015250565b60006102cb601a83610284565b91506102d682610295565b602082019050919050565b600060208201905081810360008301526102fa816102be565b9050919050565b7f4e487b7100000000000000000000000000000000000000000000000000000000600052601160045260246000fd5b600061033b826101f7565b9150610346836101f7565b925082820390508181111561035e5761035d610301565b5b92915050565b6000604082019050610379600083018561025a565b610386602083018461025a565b9392505050565b6000610398826101f7565b91506103a3836101f7565b92508282019050808211156103bb576103ba610301565b5b9291505056fea26469706673582212201968ed576cea6200d3828684d962628a21631a773087d82cdfce19bb31de0e6564736f6c634300081c0033",
  "linkReferences": {},
  "deployedLinkReferences": {}
}